:020000040800F2
:100000007805002001010008151100089D0F000867
:1000100049100008E9060008492400080000000013
:10002000000000000000000000000000891B000824
:10003000810E000800000000711A00089D1C0008D5
:100040001B0100081B0100081B0100081B01000820
:100050001B0100081B0100081B0100081B01000810
:100060001B0100081B0100081B0100081B01000800
:100070001B0100081B0100081B0100081B010008F0
:100080001B0100081B0100081B0100081B010008E0
:10009000252400081B0100081B0100081B010008A3
:1000A0001B0100081B0100081B0100081B010008C0
:1000B0003D1D0008511E00081B0100081B0100081F
:1000C0001B0100081B0100081B0100081B010008A0
:1000D0001B010008792000081B0100081B01000813
:1000E0001B0100081B0100081B010008DFF80CD0F1
:1000F00000F0A0FA004800475128000878050020C9
:100100000648804706480047FEE7FEE7FEE7FEE7B1
:10011000FEE7FEE7FEE7FEE7FEE7FEE7DD1C000880
:10012000ED000008F0B480EA0102D40F4200B2EB07
:10013000410F02D20246084611464A0042D0C30D82
:10014000DDB2C1F3C752AD1A202D35DAC1F3160165
:1001500041F4000204B15242C5F1200602FA06F150
:100160002A411044B3EBD05F23D0C4B1012DA0EBE2
:10017000C35009DCF0BC4FF0004202EAC352DBB2CC
:1001800000F5000000F0CBB9400000F1807000EBFA
:10019000C350A0F1807040EAD170490009E04908DD
:1001A00041EAC071A0EBC35000F50000400800EB2D
:1001B000C350F0BC00F0AAB96142012202EB410138
:1001C000001BF6E7F0BC704781F00041AAE780F021
:1001D0000040A7E780EA010210B502F000434000AA
:1001E00022D04A001FD0010E01EB1261C0F356006D
:1001F000C2F3560240F4000042F40002A0FB0220C9
:1002000000047F39140400D0401C50EA124001D48D
:100210004000491EC2B20C0604EBD010401C40083E
:10022000802A02D003E0002010BD20F00100002948
:1002300000DA0020184310BD30B480EA010202F059
:10024000004530F0004221F0004013D090B1C30DC2
:10025000D40DC2F31601C0F31600E41A41F40001F4
:1002600040F400027D34914201D3641C00E0490057
:10027000002C02DA30BC002070474FF4000000234D
:10028000914201D3891A034340084FEA4101F7D153
:1002900051B1914202D14FF0004105E002D24FF03E
:1002A000010101E06FF0010103EBC450284430BCB0
:1002B00000F02CB92DE9FE4F81EA030404F000445C
:1002C00021F0004100944FF0000B23F0004350EA6E
:1002D00001045ED052EA03045BD0C3F30A54C1F3B5
:1002E0000A552C44A4F2F3340194A0FB0254C1F348
:1002F000130141F48011C3F3130343F4801301FB92
:10030000024400FB034E840A970A44EA815447EAF8
:100310008357A4FB076802958D0A05FB07854FEA02
:10032000932C04FB0C542705029D4FEA065847EA1C
:100330001637B5EB08056EEB070C870E920E47EAF1
:10034000811742EA8312A7FB0201B6EB0B0164EBB3
:1003500000042B0D43EA0C335E1844EB1C50DA46C4
:100360005146E7FB0201C5F313044FEA0B3343EA9E
:1003700014534FEA0432019C43EA0603A4F10C042F
:100380000294009CCDE900B400F006F903B0BDE88A
:10039000F08F00200146F9E7C10F80EAE0700844C1
:1003A000CA079623002100F0BAB80EB5C10F80EA43
:1003B000E0700844CA07002140F233438DE80E0084
:1003C0000A460B4600F0E8F803B000BD00F000421A
:1003D00020F00040C10DC0F3160040F400007F295A
:1003E00001DA00207047962903DCC1F19601C8406C
:1003F00001E096398840002AF4D04042704770B539
:10040000C1F30A5201F000450024C1F3130140F288
:10041000FF3341F480119A4201DA002070BD40F2AE
:1004200033439A42A2F2334203DC524200F05EF8B8
:1004300000E090402C43F1D0404270BD00F00042FB
:1004400030F000400AD0C10D01F56071C0F3160014
:1004500042EA0151C208400711437047002001469B
:100460007047000030B5041E71F1000404DB4FF04A
:100470000044404264EB0101141E73F1000405DBEB
:100480001C464FF00043524263EB04038B4208BF0B
:10049000824230BD30B5041E71F1000404DB4FF020
:1004A0000044404264EB0101141E73F1000405DBBB
:1004B0001C464FF00043524263EB0403994208BFCD
:1004C000904230BD002801DBC0F10040002901DB73
:1004D000C1F1004181427047002801DBC0F10040BA
:1004E000002901DBC1F1004188427047202A04DB6A
:1004F000203A21FA02F00021704721FA02F3D0409D
:10050000C2F1200291400843194670470029A8BF54
:100510007047401C490008BF20F00100704710B42C
:10052000B0FA80FC00FA0CF050EA010404BF10BCE1
:10053000704749B1CCF1200421FA04F411FA0CF10E
:1005400018BF012121430843A3EB0C01CB1D4FEA47
:1005500000614FEA102042BF002010BC704700EB42
:10056000C35010440029A4BF10BC7047401C490070
:1005700008BF20F0010010BC704710B5141E73F1C5
:10058000000408DA401C41F1000192185B411A4353
:1005900001D120F0010010BD2DE9F04D92469B469F
:1005A00011B1B1FA81F202E0B0FA80F22032904645
:1005B00000F052F804460F4640EA0A0041EA0B01F7
:1005C00053465A46084313D0114653EA010019D046
:1005D000C8F140025046FFF789FF05460E465046D7
:1005E0005946424600F038F8084305D0012004E09F
:1005F00020463946BDE8F08D0020054346EAE07606
:100600002C4337430A986305E40AA0EB0800002254
:10061000FD0A44EA47540A3002D500200146E9E7C2
:10062000010510196941DDE9084500196941BDE876
:10063000F04DA2E7064C074D06E0E06840F00103EC
:1006400094E8070098471034AC42F6D3FFF752FD08
:10065000242A0008442A0008202A04DB203A00FA51
:1006600002F1002070479140C2F1200320FA03F309
:10067000194390407047000008B5482001F010FB76
:100680004FF4806000F080FD00F0C0FD00F0C0FC81
:1006900001F0C4F801F03CF90020022308220721F0
:1006A000009000F023F84FF4165001F02BFD4FF4AA
:1006B000165001F07FFD0B4802F03AF8322002F0AC
:1006C0006FF848F69F4140F6B83001F093FB48F6CA
:1006D0009F4140F6B83001F023FC142002F060F88E
:1006E00008BD00009400002000BFFEE72DE9F041A6
:1006F0008AB004460D4616461F46DDF840800121AB
:10070000480601F0B7F90121042001F0C3F94FF4C4
:100710000060ADF8240048208DF8270009A92F4873
:1007200000F0AFFB4FF48050ADF8240018208DF896
:10073000270003208DF8260009A9284800F0A1FB16
:1007400000208DF81E0001208DF81F0000208DF87C
:10075000200001208DF8210000208DF822008DF866
:1007600023008DF81A808DF81B408DF81C608DF8E1
:100770001D50ADF8187006A9194800F04EF9002078
:100780008DF812008DF813008DF81400ADF80800F4
:10079000ADF80A00ADF80C00ADF80E00ADF8100091
:1007A00001208DF8150002A800F0AAF8012202210C
:1007B0000B4800F029F914208DF8040002208DF870
:1007C000050000208DF8060001208DF8070001A823
:1007D00000F0A2FC0AB0BDE8F08100000008014072
:1007E00000640040F0B585B004460D464FF400703B
:1007F000009000208DF808008DF8090008208DF881
:100800000A00200A8DF80B00E1B28DF80C10290ABD
:100810008DF80D10E9B28DF80E1000218DF80F1033
:100820008DF810108DF811108DF8121069460948D6
:1008300000F0F5F90746002601E0701C86B2394643
:10084000044800F07FFA18B940F6FF708642F4DBE6
:1008500005B0F0BD00640040B1F5007F3AD00FDC78
:10086000202928D006DC01291CD004291DD0082904
:1008700040D11DE0402921D0B1F5807F3AD126E05A
:10088000B1F5004F31D006DCB1F5806F25D0B1F560
:10089000006F2FD124E0B1F5803F12D0B1F5003FB9
:1008A00028D111E0154A826025E00822C26022E0CA
:1008B0001022C2601FE0082202611CE010220261C7
:1008C00019E00822426016E01022426013E0042280
:1008D000426010E0042242600DE0042242600AE01F
:1008E000002282610422426005E00022826104222B
:1008F000426000E000BF00BF70470000010101003E
:1009000010B50021837A012202FA03F13D4A1268F0
:1009100042F001023B4B1A603A4A1C3212688A4389
:10092000384B1C331A60027BCAB9364A0C32126843
:100930008A43344B0C331A604288C38842EA03432B
:10094000304A4032847A42F834300288838842EA5E
:1009500003432C4A4032847A02EBC4025360027B88
:10096000012A19D1274A0C3212680A43254B0C334D
:100970001A604288038842EA0343224A4032847A5A
:1009800042F83430C288838842EA03431D4A403229
:10099000847A02EBC4025360C27A3AB9194A121D32
:1009A00012688A43174B1B1D1A6006E0154A121D78
:1009B00012680A43134B1B1D1A60028932B9114A8F
:1009C000143212688A430F4B14331A600289012AC9
:1009D00006D10C4A143212680A430A4B14331A60C7
:1009E000427B012A06D1074A1C3212680A43054B92
:1009F0001C331A60034A126822F00102014B1A608C
:100A000010BD0000006600401AB143690B4343610A
:100A100002E043698B434361704730B502460020D2
:100A20000023146824F002041460146844F00104E4
:100A3000146000E05B1C546804F001041CB94FF61C
:100A4000FF74A342F6D1546804F001040CB90020ED
:100A50006CE08C79012C04D1146844F0800414609B
:100A600003E0146824F080041460CC79012C04D1D4
:100A7000146844F04004146003E0146824F0400457
:100A800014600C7A012C04D1146844F02004146022
:100A900003E0146824F0200414604C7A012C04D183
:100AA000146844F01004146003E0146824F0100487
:100AB00014608C7A012C04D1146844F0080414608A
:100AC00003E0146824F008041460CC7A012C04D1EB
:100AD000146844F00404146003E0146824F004046F
:100AE00014608C78A407CD7844EA05640D7944EA53
:100AF00005444D7944EA05540D886D1E2C43D4619C
:100B0000146824F001041460002300E05B1C5468A6
:100B100004F001041CB14FF6FF74A342F6D15468EF
:100B200004F001040CB1002000E0012030BD10B53C
:100B300000F5D87303EB01131B6803F00403137271
:100B4000137A53B900F5D87303EB01131B6840F215
:100B5000FF7404EA5353136009E000F5D87303EB04
:100B600001131B686FF0604404EAD303536000F57F
:100B7000D87303EB01131B6803F00203537200F5F3
:100B8000D87303EB01135B6803F00F03937200F556
:100B9000D87303EB01135B681B0AD37400F5D87399
:100BA00003EB01139B68D37200F5D87303EB0113B9
:100BB0009B681C0A147300F5D87303EB01139B6840
:100BC0001C0C547300F5D87303EB01139B681B0EC8
:100BD000937300F5D87303EB0113DB68D37300F54F
:100BE000D87303EB0113DB681C0A147400F5D87387
:100BF00003EB0113DB681C0C547400F5D87303EB92
:100C00000113DB681B0E937421B9C36843F0200302
:100C1000C36003E0036943F02003036110BD10B516
:100C200002460020936803F08063B3F1806F00D127
:100C300010E0936803F00063B3F1006F01D101206D
:100C400008E0936803F08053B3F1805F01D1022084
:100C500000E00420042874D002F5C07303EB0013F5
:100C60001B6803F0010402F5C07303EB00131C6062
:100C70000B7A7BB94B7A0C8843EA445302F5C07473
:100C800004EB00142468234302F5C07404EB001441
:100C9000236010E00B7A4C6843EAC4034C7A234388
:100CA00002F5C07404EB00142468234302F5C074F9
:100CB00004EB001423608B7A03F00F038B7202F5B0
:100CC000C07303EB00135B6823F00F0402F5C073DD
:100CD00003EB00135C6002F5C07303EB00135B6869
:100CE0008C7A234302F5C07404EB001463608B7BA1
:100CF0001C064B7B44EA03440B7B44EA0323CC7A77
:100D0000234302F5C07404EB0014A3608B7C1C0623
:100D10004B7C44EA03440B7C44EA0323CC7B23430F
:100D200002F5C07404EB0014E36002F5C07303EB3A
:100D300000131B6843F0010402F5C07303EB0013BA
:100D40001C6010BD10B50246002321B1012907D057
:100D500002290FD109E090681D4C00EA04030BE062
:100D600090681C4C00EA040306E090681A4C00EA04
:100D7000040301E0002300BF00BF184C181BA3426E
:100D800016D007DC83B16FF08060184470B1022880
:100D900018D111E0B0F5007F10D0114C204448B1BB
:100DA000B0F5003F0ED10BE002230DE000230BE075
:100DB000002309E0002307E0012305E0012303E00D
:100DC000012301E0002300BF00BFD8B210BD000026
:100DD00003000004000300080000031000010008E5
:100DE0000001FFF70168A1F2012111B1012940D1F1
:100DF00000E000BF0178491E1F4A117011460978B2
:100E000001EB81011D4A32F8111009B21A4A127819
:100E100002EB8202194B03EB42021181017BC27A81
:100E200041EA0221144A127802EB820223F81210DE
:100E3000827B417B42EA012109B20F4A127802EB20
:100E4000820203EB42025180027CC17B42EA012113
:100E500009B2094A127802EB820203EB4202918046
:100E6000417C054A127802EB820203EB4202917147
:100E700000E000BF00BF7047000000206C000020B1
:100E800070472DE9F041024600250026002000238E
:100E90000024002791F803C00CF00F0591F803C05F
:100EA0000CF0100CBCF1000F03D091F802C04CEA1A
:100EB000050591F800C0BCF1000F31D01468002086
:100EC0002BE04FF0010C0CFA00F3B1F800C00CEA73
:100ED00003069E4220D183004FF00F0C0CFA03F75B
:100EE000BC4305FA03FC4CEA040491F803C0BCF1CE
:100EF000280F06D14FF0010C0CFA00FCC2F814C008
:100F00000AE091F803C0BCF1480F05D14FF0010C85
:100F10000CFA00FCC2F810C0401C0828D1D31460A1
:100F2000B1F800C0BCF1FF0F34DD546800202EE0A2
:100F300000F1080C4FF0010808FA0CF3B1F800C0FA
:100F40000CEA03069E4221D183004FF00F0C0CFAED
:100F500003F7BC4305FA03FC4CEA040491F803C010
:100F6000BCF1280F05D100F1080C08FA0CF8C2F802
:100F7000148091F803C0BCF1480F07D100F1080CB0
:100F80004FF0010808FA0CF8C2F81080401C08283D
:100F9000CED35460BDE8F0810161704700BFFEE729
:100FA00010B501200A49086001F020FC0120094920
:100FB000C1F8980101F01AFC0020054908600120E1
:100FC00001F014FC00200349C1F8980110BD000095
:100FD0009C8121420080214210B500200A4908600E
:100FE000012001F003FC00200849C1F8980101200C
:100FF00001F0FCFB01200449086001F0F7FB01202F
:101000000249C1F8980110BD9C8121420080214213
:1010100008B50121102000F03DFD4FF46040ADF80F
:10102000000010208DF8030003208DF802006946AF
:101030000448FFF726FF4FF460410248FFF7ACFF7A
:1010400008BD00000010014000BFFEE770B5044677
:10105000E069FFF7BBF90546A068FFF7B7F9061E80
:1010600001DB304600E07042002D01DB294600E044
:10107000694288420ADDA068FFF7A8F91F490860A5
:10108000E069FFF7A3F91E4908601CE0E069FFF77B
:101090009DF90546A068FFF799F9061E01DB304669
:1010A00000E07042002D01DB294600E069428842E1
:1010B00009DAE069FFF78AF910490860A068FFF7CC
:1010C00085F90F4908600D4909680D4A12688818AA
:1010D000FFF762F90B49C8600B4808600B4848608D
:1010E0004FF07F508860084600F012FA05494869C1
:1010F000FFF76CF90649086070BD0000140000207D
:10110000180000204C01002000002040CDCC4C3EB7
:101110001C0000207047000070B5002100230F2242
:10112000C47804B3154C246804F4E064C4F5E064A6
:10113000210AC1F10403CA40447804FA03F1847817
:101140001440214309010E4C0678A155047804F09F
:101150001F050124AC4005786D11AD0005F1E025B7
:10116000C5F8004109E0047804F01F050124AC40F3
:10117000044D0678761145F8264070BD0CED00E070
:1011800000E400E080E100E002490143024A11600E
:10119000704700000000FA050CED00E070B506464F
:1011A000002415E004F1B001C8B200F0A5F8012058
:1011B00000F0A2F8102000F09FF8002504E030466F
:1011C00000F0AAF8681CC5B2802DF8DB601CC4B220
:1011D000082CE7DB70BD000008B50121082000F0F5
:1011E00059FCC020ADF8000010208DF8030003204A
:1011F0008DF8020069460448FFF743FEC02102480B
:10120000FFF7CAFE08BD0000000C014010B5FFF753
:10121000E3FF642001F0C4FAAE2000F06DF8002076
:1012200000F06AF8102000F067F8402000F064F841
:10123000812000F061F8C42000F05EF8A12000F0E9
:101240005BF8C82000F058F8A62000F055F8A82058
:1012500000F052F83F2000F04FF8D32000F04CF897
:10126000002000F049F8D52000F046F8802000F07A
:1012700043F8D92000F040F8F12000F03DF8DA20E2
:1012800000F03AF8122000F037F8DB2000F034F8D4
:10129000402000F031F8202000F02EF8022000F06D
:1012A0002BF88D2000F028F8142000F025F8A42059
:1012B00000F022F8A62000F01FF8AF2000F01CF884
:1012C0000020FFF76BFF0021084600F001F810BD79
:1012D00070B504460D4605F1B001C8B200F00CF837
:1012E000102141EA141000F007F804F00F0141F05A
:1012F000010000F001F870BD10B50446FFF750FE84
:10130000782001F0A3F8002001F0A0F8204601F0B9
:101310009DF8FFF761FE10BD10B50446FFF740FED3
:10132000782001F093F8402001F090F8204601F079
:101330008DF8FFF751FE10BD2DE9FC5F044689468C
:1013400092469B4614B90020BDE8FC9F216C616465
:10135000E16B2164C4F818A0C4F81C9049465046BB
:10136000FEF732FFE063207800284DD1E16B606822
:10137000FEF730FF6062E16BA068FEF72BFF0546C9
:10138000A16AFEF7CFFEA062616BA163216B61636E
:10139000D4E90F01FEF718FF2063216BE068FEF728
:1013A00019FFE0626169A06AFFF796F802D26069EE
:1013B000A0620BE0606980F000452846A16AFFF753
:1013C0008BF803D2606980F00040A062D4E9090183
:1013D000FEF7A8FE0546E16AFEF7A4FE2062216939
:1013E000206AFFF779F802D22069206287E020693D
:1013F00080F000452846216AFFF76EF87FD2206909
:1014000080F0004020627AE02078012877D1D4E98A
:101410000F01FEF7D9FE05466168FEF7DBFE60624C
:101420005046FFF70BF807464FF06632354BFEF794
:1014300041FF05460E464846FFF700F82A46334668
:10144000CDE90001FFF726F816D9BBF1010F13D043
:101450005046FEF7F3FF05462B4A2C4BFEF72AFFBA
:10146000074688464846FEF7E9FF3A464346CDE937
:101470000001FEF7F7FF05D8E16BA068FEF7AAFEB2
:10148000A06204E0E16BA068FEF7A4FEA062616BBD
:10149000A163216B61634FF08040216CFEF79AFEDF
:1014A0000646E16BFEF793FE0546616CFEF73AFED9
:1014B0002063216BE068FEF78DFEE062D4E909014C
:1014C000FEF730FE0646E16AFEF72CFE0546216A6D
:1014D000FEF728FE20622169206AFEF7FDFF02D296
:1014E000206920620BE0206980F000452846216ACF
:1014F000FEF7F2FF03D2206980F000402062206AEC
:1015000022E700006666E63FCDCCCCCCCCCCF43FE5
:101510002DE9F05F044600212068FEF7D3FF03D2D7
:10152000206880F00040206000216068FEF7CAFF5C
:1015300003D2606880F0004060600021A068FEF780
:10154000C1FF03D2A06880F00040A060A169E068FC
:10155000FEF73AFE8046E5684FF08040A169FEF74D
:1015600039FE8146E168FEF732FE0746E169FEF783
:10157000D9FD0646A069E061E068A0613146A06837
:10158000FEF728FE814629466068FEF723FE824664
:1015900041462068FEF71EFE83465146FEF7C2FD17
:1015A00007464946FEF7BEFD206100212068FEF790
:1015B00089FF0CD100216068FEF784FF07D100216C
:1015C000A068FEF77FFF02D10020606104E0D4E94B
:1015D0000410FEF7A7FD6061BDE8F09F70B5049CA4
:1015E00000B102B970BD017015684560556885602D
:1015F0009568C5600361446100268663466306639F
:101600000662C6628662466246640664C66300BFBE
:10161000E8E770B50546002400BF09E004EBC4020A
:1016200005F1280101EBC20000F005F8601CC4B20E
:10163000022CF3DB70BD00B97047002242640264E3
:10164000C2638263426302630021C16281624162BC
:1016500001628161C16100BFEEE7000001460148FF
:10166000405C70476C010020002004E00021034A28
:101670001154411CC8B20928F8DB70476C010020E6
:1016800038B504460120009000201E494870012012
:1016900000902EE0BDF80000204018B101201A494A
:1016A000086002E00020184908600120164908314E
:1016B0000860052001F09AF800201449C1F8BC0127
:1016C000052001F093F801201049C1F8BC0108463B
:1016D000D0F8300130B10B484078BDF80010084315
:1016E00008494870BDF800004FF6FF7101EA40005C
:1016F0000090BDF80000FF28CCDD102001F076F846
:1017000038BD00006C010020B481214200802142DC
:1017100010B5FFF7A9FF00F0A1F80F48C0780E49F7
:10172000097940EA01200D49088000240FE00C48A7
:1017300010F81400401E012101FA00F00749098841
:10174000084010B9601CC0B210BD601CC4B2102C9F
:10175000EDDB0020F8E700006C01002030000020E5
:101760003400002010B5002013490860102001F05B
:101770003DF80120FFF784FF4320FFF781FF0020A1
:10178000FFF77EFF0120FFF77BFF0020FFF778FFC8
:101790000020FFF775FF0020FFF772FF0020FFF722
:1017A0006FFF0020FFF76CFF01200449C1F8B8016A
:1017B000102001F01BF810BDB881214200802142A9
:1017C00010B5002013490860102001F00FF8012027
:1017D000FFF756FF4320FFF753FF0020FFF750FFAE
:1017E0000020FFF74DFF5A20FFF74AFF5A20FFF76E
:1017F00047FF5A20FFF744FF5A20FFF741FF5A20C6
:10180000FFF73EFF01200449C1F8B801102000F0A5
:10181000EDFF10BDB88121420080214208B50121B1
:10182000082000F037F94FF48050ADF80000482050
:101830008DF8030003208DF802004FF46040ADF8EE
:10184000000010208DF8030003208DF80200694687
:101850000148FFF716FB08BD000C01401CB5002035
:101860000190012000900020254908602549087852
:10187000FFF706FF23494878FFF702FF0220019097
:1018800036E00120009027E001201D49091D086075
:10189000052000F0ABFF00201B49C1F8BC0105206A
:1018A00000F0A4FF01201849C1F8BC010846D0F897
:1018B000300150B115489DF80410405CBDF800108F
:1018C000084312499DF804208854BDF800004FF6E3
:1018D000FF7101EA40000090BDF80000FF28D3DD51
:1018E000102000F083FF9DF80400401CC0B201905E
:1018F0009DF804000928C4DB0120014908601CBDD3
:10190000B881214232000020008021426C01002079
:1019100010B500F00DF800F00BF800F009F8FFF733
:1019200021FF00F027F800F081F8FFF749FF10BD14
:1019300010B500200D490860102000F057FF01206D
:10194000FFF79EFE4220FFF79BFE0020FFF798FE68
:101950000020FFF795FE0020FFF792FE01200449CA
:10196000C1F8B801102000F041FF10BDB88121423C
:101970000080214210B50020124908600120FFF7C5
:101980007FFE4420FFF77CFE0020FFF779FE012058
:10199000FFF776FEEE20FFF773FE0020FFF770FEE4
:1019A0000020FFF76DFE0020FFF76AFE0020FFF722
:1019B00067FE01200449C1F8B801102000F016FFAD
:1019C00010BD0000B88121420080214270B505465B
:1019D0000C46002013490860102000F007FF01208A
:1019E000FFF74EFE4220FFF74BFE0020FFF748FEB8
:1019F0002846FFF745FE2046FFF742FE0020FFF78E
:101A00003FFE0020FFF73CFE0020FFF739FE0020DC
:101A1000FFF736FE01200449C1F8B801102000F09C
:101A2000E5FE70BDB88121420080214210B5002042
:101A30000D490860102000F0D9FE0120FFF720FEBC
:101A40004D20FFF71DFE0020FFF71AFE0020FFF7D4
:101A500017FE0120FFF714FE01200449C1F8B80168
:101A6000102000F0C3FE10BDB88121420080214249
:101A70007047000029B1064AD2690243044BDA617B
:101A800004E0034AD2698243014BDA6170470000E7
:101A90000010024029B1064A92690243044B9A6140
:101AA00004E0034A92698243014B9A617047000047
:101AB0000010024030B500210022002400232D4DEB
:101AC0006D6805F00C0121B1042905D0082923D146
:101AD00005E0294D056022E0274D05601FE0254DFA
:101AE0006D6805F47012234D6D6805F4803402258D
:101AF00005EB92421CB9214D554305600BE01D4D8D
:101B00006D6805F400351DB11C4D5543056002E0BC
:101B1000194D5543056002E0174D056000BF00BF39
:101B2000144D6D6805F0F0010909154D6B5C0568F1
:101B3000DD4045600F4D6D6805F4E061090A104D08
:101B40006B5C4568DD4085600A4D6D6805F4605149
:101B5000C90A0B4D6B5C4568DD40C560054D6D687D
:101B600005F44041890B074D6B5CC568B5FBF3F587
:101B7000056130BD0010024000127A0000093D00EE
:101B80005800002068000020704710B500F002F8EF
:101B900010BD00000CB50020019000903348006893
:101BA00040F480303149086000BF3048006800F4DC
:101BB000003000900198401C0190009818B90198DD
:101BC000B0F5A06FF1D12948006800F4003010B1E1
:101BD0000120009001E0002000900098012843D1EE
:101BE0002348006840F0100021490860084600685A
:101BF00020F0030008600846006840F0020008601A
:101C00001A484068194948600846406848600846D4
:101C1000406840F4806048600846406820F47C10CA
:101C200048600846406840F4E8104860084600688C
:101C300040F08070086000BF0C48006800F0007041
:101C40000028F9D00948406820F00300074948609F
:101C50000846406840F00200486000BF0348406802
:101C600000F00C000828F9D10CBD00000010024063
:101C700000200240042808D14FF0E021096941F01A
:101C800004014FF0E022116107E04FF0E021096903
:101C900021F004014FF0E02211617047704700000D
:101CA00010B504466FF00400FFF7E4FFE11704EB02
:101CB0005171C1F3C701074A11701046007800EB5B
:101CC0004001C1EBC0104FF6FF7101EAC0000249AC
:101CD000088010BD540000205600002010B51348A5
:101CE000006840F00100114908600846406810494A
:101CF00008400E494860084600680E4908400B49F4
:101D000008600846006820F48020086008464068A3
:101D100020F4FE0048604FF41F008860FFF735FF95
:101D20004FF000600449086010BD00000010024040
:101D30000000FFF8FFFFF6FE08ED00E02DE9FC478C
:101D40000121880700F02BF9002845D02549886833
:101D5000FEF73CFBB0F1000901DBCA4601E0C9F126
:101D6000000A2049C868FEF769FB4FF033321E4B6A
:101D7000CDE90001FEF79EFA0746FEF740FB061E7E
:101D800001DB304600E0704282451EDC1549886860
:101D9000FEF71CFB051E01DBAA4601E0C5F1000AA7
:101DA0001049C868FEF74AFB07464FF066320F4BF2
:101DB000FEF780FACDE90001FEF721FB041E01DBEE
:101DC000204600E06042824503DA0020084908709E
:101DD00002E00120064908700121880700F0D0F8D0
:101DE000BDE8FC87940000203333E33F6666F63F8E
:101DF000100000207FB505460C4601210846FFF77C
:101E000039FEADF80850ADF804400020ADF80A00E6
:101E1000ADF8060001A94FF0804000F0DBF8012288
:101E20001146900700F0CCF80121880700F0A8F8CF
:101E30001C208DF8000003208DF8010000208DF893
:101E4000020001208DF803006846FFF765F97FBDA9
:101E50002DE9FC4701212C4800F0A1F800284DD0C5
:101E60002A48006808B9012000E0002027490860DE
:101E70002749C869FEF7AAFAB0F1000901DBCA4692
:101E800001E0C9F1000A2249086AFEF7D7FA4FF0CB
:101E90003332204BCDE90001FEF70CFA0746FEF77E
:101EA000AEFA061E01DB304600E0704282451EDCC1
:101EB0001749C869FEF78AFA051E01DBAA4601E048
:101EC000C5F1000A1249086AFEF7B8FA07464FF052
:101ED0006632114BFEF7EEF9CDE90001FEF78FFAFD
:101EE000041E01DB204600E06042824503DA002048
:101EF0000A49487002E0012008494870012102485F
:101F000000F03EF8BDE8FC8700040040BC0122421E
:101F1000940000203333E33F6666F63F1000002054
:101F20007FB505460C4601210220FFF7A3FDADF861
:101F30000850ADF804400020ADF80A00ADF80600E6
:101F400001A90E4800F046F8012211460B4800F0A6
:101F500037F80121094800F013F81D208DF8000022
:101F600003208DF8010000208DF8020001208DF87B
:101F700003006846FFF7D0F87FBD00000004004072
:101F8000CA430282704721B1028842F001020280F6
:101F900004E002884FF6FE731A400280704730B5A5
:101FA0000246002000230024158A05EA01039589D2
:101FB00005EA010413B10CB1012000E0002030BD9E
:101FC0001AB183890B43838102E083898B43838128
:101FD00070470000002202881D4B98420ED01D4B16
:101FE00098420BD0B0F1804F08D01B4B984205D0DF
:101FF0001A4B984202D01A4B984204D14FF68F7375
:102000001A404B881A43174B984207D0164B9842F8
:1020100004D04FF6FF431A40CB881A4302808B88C6
:1020200083850B8803850A4B98420BD0094B984255
:1020300008D00E4B984205D00D4B984202D00D4B64
:10204000984201D10B7A03860123838270470000F6
:10205000002C014000340140000400400008004012
:10206000000C0040001000400014004000400140FF
:10207000004401400048014010B540F225511D4880
:1020800000F00EF9002833D040F22551194800F035
:10209000ECF8184800F0C0F91749184A127888542B
:1020A00016480078401C1549087013480078AA2883
:1020B0001BD111488079552803D00846007807289D
:1020C00016D10D4840780E4908700B48807848704A
:1020D0000948C078887008480079C8700648407977
:1020E000087100200549087002E0002003490870CB
:1020F00010BD00000038014007000020060000204D
:102100000100002010B586B0044601210420FFF72D
:10211000C1FC01218803FFF7BDFC4FF40070ADF84E
:10212000140003208DF8160018208DF8170005A95B
:102130001E48FEF7A6FE4FF48060ADF814000420A0
:102140008DF8170005A91948FEF79BFE01940020A1
:10215000ADF80800ADF80A00ADF80C00ADF81000BD
:102160000C20ADF80E0001A9114800F0E9F801219A
:102170000F4800F089F840210D4800F06DF8012269
:1021800040F225510A4800F0B5F825208DF80000EE
:1021900003208DF801008DF8020001208DF8030066
:1021A0006846FEF7B9FF06B010BD00000008014008
:1021B0000038014010B586B0044601214804FFF7FD
:1021C00069FC0420ADF8140003208DF816001820D7
:1021D0008DF8170005A91E48FEF753FE0820ADF83C
:1021E000140004208DF8170005A91948FEF749FED0
:1021F00001940020ADF80800ADF80A00ADF80C001D
:10220000ADF810000C20ADF80E0001A9114800F047
:1022100097F801210F4800F037F840210D4800F0F1
:102220001BF8012240F225510A4800F063F82620ED
:102230008DF8000003208DF801008DF802000120C8
:102240008DF803006846FEF767FF06B010BD00007A
:10225000000801400044004001F40072B2F5007F24
:1022600000D100BFCA430280704710B5002200238E
:1022700040F66A14A14200D100BF0A120124944022
:10228000A3B2DC43048010BD21B1828942F4005224
:10229000828104E082894DF6FF731A408281704783
:1022A00070B50246002400230025002040F66A167F
:1022B000B14200D100BFC1F3421501F01F03012656
:1022C00006FA03F3012D02D19689334006E0022D70
:1022D00002D1168A334001E0968A33400C1201265F
:1022E00006FA04F41688344013B10CB1012000E062
:1022F000002070BDF0B50346002400260025002014
:1023000040F66A17B94200D100BF1846C1F3421423
:1023100001F01F06012707FA06F5012C01D10C3048
:1023200004E0022C01D1103000E014301AB107682B
:102330002F43076002E00768AF430760F0BD00006D
:102340002DE9F04786B005460E460024A24600BFA0
:10235000A1460027B08900B100BF2F462C8A4CF659
:10236000FF700440F08804432C82AC894EF6F310D1
:102370000440B08831890843718908430443AC8123
:10238000AC8A4FF6FF400440B0890443AC8201A8F8
:10239000FFF790FB1F48874202D1DDF810A001E053
:1023A000DDF80CA0A88900F4004040B10AEBCA0097
:1023B00000EB0A1031684900B0FBF1F807E00AEBC6
:1023C000CA0000EB0A1031688900B0FBF1F8642004
:1023D000B8FBF0F004012009642101FB1089A889F1
:1023E00000F4004040B1322000EBC900B0FBF1F036
:1023F00000F00700044308E0322000EB09106421DC
:10240000B0FBF1F000F00F0004432C8106B0BDE8F2
:10241000F08700000038014001468888C0F30800BA
:102420007047000010B502210548FEF715FA054A6D
:1024300000210348FEF77BFB0248FEF7D3FC10BDEA
:10244000006400408000002000BFFEE770B5044635
:1024500000251DE004F0800018B101201349086038
:1024600002E0002011490860012000F0BFF90120BE
:102470000E49091F086000F0B9F900200C49C1F8A5
:102480009801012000F0B2F96006040E681CC5B284
:10249000082DDFDB01200549091F086000F0A6F9BF
:1024A00000200349C1F8980170BD00009C812142C1
:1024B0000080214202E008C8121F08C1002AFAD198
:1024C00070477047002001E001C1121F002AFBD1B4
:1024D000704700002DE9FF5F0446002500BF0BE0B8
:1024E0007B4951F82500FDF757FF05EB850104EB0B
:1024F0008101C860681CC5B2022DF1DBE068FDF700
:1025000065FFB0F1000B01DB594601E0CBF10001A2
:102510000846FDF74AFF07464FF033326D4BFDF793
:10252000C9FECDE90201A068FDF750FFB0F1000A35
:1025300001DB514601E0CAF100010846FDF735FF15
:10254000CDE90001DDE90223FDF7A4FF26D3E06811
:10255000FDF73CFF061E01DB314600E071420846F4
:10256000FDF723FF4FF066325B4BCDE90001FDF72D
:10257000A1FECDE90201A068FDF728FFB0F1000936
:1025800001DB494601E0C9F100010846FDF70DFFF6
:102590000746DDE90223FDF765FF08D200214FF071
:1025A0008040FFF7F0FC00204C49087003E0012157
:1025B0008807FFF7E8FC206AFDF708FFB0F1000B81
:1025C00001DB594601E0CBF100010846FDF7EDFEC5
:1025D00007464FF033323F4BFDF76CFECDE9020169
:1025E000E069FDF7F3FEB0F1000A01DB514601E0BE
:1025F000CAF100010846FDF7D8FECDE90001DDE98A
:102600000223FDF747FF26D3206AFDF7DFFE061EF3
:1026100001DB314600E071420846FDF7C6FE074681
:102620004FF066322C4BFDF745FECDE90201E06923
:10263000FDF7CCFEB0F1000901DB494601E0C9F12C
:1026400000010846FDF7B1FECDE90001DDE90223F6
:10265000FDF708FF07D200212148FFF794FC002076
:102660001E49487003E001211D48FFF78CFC00253E
:1026700015E01A4E735D05EB850604EB8606F268DD
:1026800005EB850604EB860605EBC507B16804F18A
:10269000280606EBC700FEF74FFE681CC5B2022DE8
:1026A000E7DB002510E005EBC50204F1280101EB92
:1026B000C201086AFDF78AFE00B205EB850104EB52
:1026C00081010882681CC5B2022DECDBBDE8FF9FCA
:1026D000280000203333E33F6666F63F10000020F9
:1026E0000004004070B50446002504B970BD002503
:1026F0001AE005EB850154F82110B1F90200FDF74D
:102700004BFE05EB850104EB8101886005EBC501FB
:1027100004F1280000EBC100006B05EB850104EB20
:1027200081014860681CC5B2022DE2DB00BFDDE715
:1027300038B5044604B938BD002510E0284600F03D
:102740007BF805EB850144F8210005EBC50204F197
:10275000280101EBC200FEF76EFF681CC5B2022D16
:10276000ECDB0B480B4B0C4A0121009004F12800D4
:10277000FEF734FF0648074B084A0121009004F198
:102780007000FEF72BFF2046FFF7ACFF00BFD2E73B
:102790000000FA4400007A460C2A0008182A0008B3
:1027A0000146114A12884A434FF0E0235A61002241
:1027B0009A611A46126942F001021A6100BF4FF095
:1027C000E022106900F001021AB100F48032002A00
:1027D000F5D04FF0E022126922F001024FF0E02321
:1027E0001A6100229A617047560000200146114A82
:1027F00012784A434FF0E0235A6100229A611A4648
:10280000126942F001021A6100BF4FF0E022106924
:1028100000F001021AB100F48032002AF5D04FF026
:10282000E022126922F001024FF0E0231A61002237
:102830009A61704754000020014601F0010000EB4E
:102840008000024A02EB4000704700006C0000204C
:1028500008B500260027FDF70FFFCDE067480068A8
:1028600008B9012000E0002064490860FEF750FF2D
:10287000064663480079592874D1002E79D00B2E72
:102880005ED10820FEF7EAFEA0F17F04B4F1000853
:1028900001DB414601E0C8F100010846FDF77CFD7F
:1028A0004FF086410090FDF7C7FC82460520FEF7F9
:1028B000D5FE803800EB400080000090FDF76CFDF5
:1028C00083465146FDF786FC8146FDF77FFD05B244
:1028D0000820FEF7C3FEC0F17F0000EB4000C400FB
:1028E00044B93DB900204749086048604648FEF7B2
:1028F00090FE2CE0002C10DD002D06DA6019414915
:102900000860E043401C486021E03E480460601BD2
:10291000C043401C3B49486019E0002C17DA002DE9
:1029200006DA601B37490860E043401C48600EE04F
:10293000344804606019C043401C3249486006E0D6
:1029400000203049086048602F48FEF762FE0C2ED8
:102950000AD1FF210020FFF739F84FF4FA70FFF792
:102960001FFF0DE00FE004E000210846FFF72EF8FE
:1029700006E000202349086048602348FEF749FE2E
:102980000F20FFF70DFF1E4800794E2812D11C487A
:1029900040781B49097840EA012000B219490860D3
:1029A0001748C0781649897840EA012000B24042B1
:1029B000144948601448FFF795FE1348FEF746FB9C
:1029C0001148FFF787FD104AB2F92410B2F9100040
:1029D000FDF708FF781CC7B2142097FBF0F100FB4D
:1029E000117048B90548001F006808B9012000E0CF
:1029F00000200249091F086030E70000B8012242A8
:102A00000100002028000020940000203333034000
:102A1000000000005C8FC23E00001040000000007B
:102A20009A99993E442A0008000000206C0000009A
:102A3000B4240008B02A00086C0000200C05000037
:102A4000C424000800000000000000000000000096
:102A50000000000000000000000000000000000076
:102A60000000000000000000000000000000000066
:102A70000000000000000142010002000300040009
:102A8000050006000700080009000A000B000C0002
:102A90000D000E000F0010000000000000000000FC
:102AA00001020304010203040607080902040608E0
:04000005080000ED02
:00000001FF
